{
  "_format": "hh-sol-artifact-1",
  "contractName": "TenderContract",
  "sourceName": "contracts/TenderContract.sol",
  "abi": [
    {
      "inputs": [],
      "stateMutability": "nonpayable",
      "type": "constructor"
    },
    {
      "anonymous": false,
      "inputs": [
        {
          "indexed": false,
          "internalType": "uint256",
          "name": "tenderId",
          "type": "uint256"
        },
        {
          "indexed": false,
          "internalType": "string",
          "name": "reason",
          "type": "string"
        }
      ],
      "name": "ApplicationRejected",
      "type": "event"
    },
    {
      "anonymous": false,
      "inputs": [
        {
          "indexed": false,
          "internalType": "uint256",
          "name": "tenderId",
          "type": "uint256"
        },
        {
          "indexed": false,
          "internalType": "address",
          "name": "applicant",
          "type": "address"
        },
        {
          "indexed": false,
          "internalType": "uint256",
          "name": "amount",
          "type": "uint256"
        },
        {
          "indexed": false,
          "internalType": "uint256",
          "name": "time",
          "type": "uint256"
        }
      ],
      "name": "ApplicationSubmitted",
      "type": "event"
    },
    {
      "anonymous": false,
      "inputs": [
        {
          "indexed": false,
          "internalType": "uint256",
          "name": "id",
          "type": "uint256"
        },
        {
          "indexed": false,
          "internalType": "string",
          "name": "name",
          "type": "string"
        },
        {
          "indexed": false,
          "internalType": "uint256",
          "name": "amount",
          "type": "uint256"
        },
        {
          "indexed": false,
          "internalType": "uint256",
          "name": "completionTime",
          "type": "uint256"
        }
      ],
      "name": "TenderCreated",
      "type": "event"
    },
    {
      "inputs": [],
      "name": "MAX_AMOUNT",
      "outputs": [
        {
          "internalType": "uint256",
          "name": "",
          "type": "uint256"
        }
      ],
      "stateMutability": "view",
      "type": "function"
    },
    {
      "inputs": [],
      "name": "MAX_TIME",
      "outputs": [
        {
          "internalType": "uint256",
          "name": "",
          "type": "uint256"
        }
      ],
      "stateMutability": "view",
      "type": "function"
    },
    {
      "inputs": [
        {
          "internalType": "uint256",
          "name": "_tenderId",
          "type": "uint256"
        },
        {
          "internalType": "uint256",
          "name": "_proposedAmount",
          "type": "uint256"
        },
        {
          "internalType": "uint256",
          "name": "_proposedTime",
          "type": "uint256"
        }
      ],
      "name": "applyToTender",
      "outputs": [],
      "stateMutability": "nonpayable",
      "type": "function"
    },
    {
      "inputs": [
        {
          "internalType": "string",
          "name": "_name",
          "type": "string"
        },
        {
          "internalType": "uint256",
          "name": "_amount",
          "type": "uint256"
        },
        {
          "internalType": "uint256",
          "name": "_completionTime",
          "type": "uint256"
        }
      ],
      "name": "createTender",
      "outputs": [],
      "stateMutability": "nonpayable",
      "type": "function"
    },
    {
      "inputs": [],
      "name": "getAllTenders",
      "outputs": [
        {
          "components": [
            {
              "internalType": "uint256",
              "name": "id",
              "type": "uint256"
            },
            {
              "internalType": "string",
              "name": "name",
              "type": "string"
            },
            {
              "internalType": "uint256",
              "name": "amount",
              "type": "uint256"
            },
            {
              "internalType": "uint256",
              "name": "completionTime",
              "type": "uint256"
            },
            {
              "internalType": "address",
              "name": "issuer",
              "type": "address"
            },
            {
              "internalType": "bool",
              "name": "isOpen",
              "type": "bool"
            }
          ],
          "internalType": "struct TenderContract.Tender[]",
          "name": "",
          "type": "tuple[]"
        }
      ],
      "stateMutability": "view",
      "type": "function"
    },
    {
      "inputs": [],
      "name": "owner",
      "outputs": [
        {
          "internalType": "address",
          "name": "",
          "type": "address"
        }
      ],
      "stateMutability": "view",
      "type": "function"
    },
    {
      "inputs": [
        {
          "internalType": "uint256",
          "name": "",
          "type": "uint256"
        }
      ],
      "name": "tenders",
      "outputs": [
        {
          "internalType": "uint256",
          "name": "id",
          "type": "uint256"
        },
        {
          "internalType": "string",
          "name": "name",
          "type": "string"
        },
        {
          "internalType": "uint256",
          "name": "amount",
          "type": "uint256"
        },
        {
          "internalType": "uint256",
          "name": "completionTime",
          "type": "uint256"
        },
        {
          "internalType": "address",
          "name": "issuer",
          "type": "address"
        },
        {
          "internalType": "bool",
          "name": "isOpen",
          "type": "bool"
        }
      ],
      "stateMutability": "view",
      "type": "function"
    }
  ],
  "bytecode": "0x608060405234801561001057600080fd5b50336000806101000a81548173ffffffffffffffffffffffffffffffffffffffff021916908373ffffffffffffffffffffffffffffffffffffffff1602179055506114be806100606000396000f3fe608060405234801561001057600080fd5b506004361061007d5760003560e01c80638da5cb5b1161005b5780638da5cb5b146100f3578063baa9854814610111578063d40dc8701461012d578063e6604e7d1461014b5761007d565b80632358c0461461008257806326949984146100a0578063465e1def146100be575b600080fd5b61008a610167565b6040516100979190610f7c565b60405180910390f35b6100a86102e7565b6040516100b5919061107e565b60405180910390f35b6100d860048036038101906100d39190610a7f565b6102ee565b6040516100ea9695949392919061112a565b60405180910390f35b6100fb6103ef565b6040516101089190610f61565b60405180910390f35b61012b60048036038101906101269190610aa8565b610413565b005b61013561066d565b604051610142919061107e565b60405180910390f35b61016560048036038101906101609190610a18565b610673565b005b60606001805480602002602001604051908101604052809291908181526020016000905b828210156102de57838290600052602060002090600502016040518060c0016040529081600082015481526020016001820180546101c8906113a1565b80601f01602080910402602001604051908101604052809291908181526020018280546101f4906113a1565b80156102415780601f1061021657610100808354040283529160200191610241565b820191906000526020600020905b81548152906001019060200180831161022457829003601f168201915b5050505050815260200160028201548152602001600382015481526020016004820160009054906101000a900473ffffffffffffffffffffffffffffffffffffffff1673ffffffffffffffffffffffffffffffffffffffff1673ffffffffffffffffffffffffffffffffffffffff1681526020016004820160149054906101000a900460ff1615151515815250508152602001906001019061018b565b50505050905090565b6283d60081565b600181815481106102fe57600080fd5b9060005260206000209060050201600091509050806000015490806001018054610327906113a1565b80601f0160208091040260200160405190810160405280929190818152602001828054610353906113a1565b80156103a05780601f10610375576101008083540402835291602001916103a0565b820191906000526020600020905b81548152906001019060200180831161038357829003601f168201915b5050505050908060020154908060030154908060040160009054906101000a900473ffffffffffffffffffffffffffffffffffffffff16908060040160149054906101000a900460ff16905086565b60008054906101000a900473ffffffffffffffffffffffffffffffffffffffff1681565b600180549050831061045a576040517f08c379a00000000000000000000000000000000000000000000000000000000081526004016104519061103e565b60405180910390fd5b600060018481548110610496577f4e487b7100000000000000000000000000000000000000000000000000000000600052603260045260246000fd5b906000526020600020906005020190508060040160149054906101000a900460ff1661052e577fc86cc611b96e52577e15116c37b19c5ca4526c57038a49dd84c7227ededddfe4846040516104eb91906111ee565b60405180910390a16040517f08c379a000000000000000000000000000000000000000000000000000000000815260040161052590610fde565b60405180910390fd5b80600201548311156105ac577fc86cc611b96e52577e15116c37b19c5ca4526c57038a49dd84c7227ededddfe4846040516105699190611192565b60405180910390a16040517f08c379a00000000000000000000000000000000000000000000000000000000081526004016105a39061101e565b60405180910390fd5b806003015482111561062a577fc86cc611b96e52577e15116c37b19c5ca4526c57038a49dd84c7227ededddfe4846040516105e791906111c0565b60405180910390a16040517f08c379a000000000000000000000000000000000000000000000000000000000815260040161062190610f9e565b60405180910390fd5b7fc2995a34b85b7a073c64bec2281799f70b766948ee79218351ab700b7cbc48e98433858560405161065f9493929190611099565b60405180910390a150505050565b61271081565b60008054906101000a900473ffffffffffffffffffffffffffffffffffffffff1673ffffffffffffffffffffffffffffffffffffffff163373ffffffffffffffffffffffffffffffffffffffff1614610701576040517f08c379a00000000000000000000000000000000000000000000000000000000081526004016106f89061105e565b60405180910390fd5b612710821115610746576040517f08c379a000000000000000000000000000000000000000000000000000000000815260040161073d90610ffe565b60405180910390fd5b6283d60081111561078c576040517f08c379a000000000000000000000000000000000000000000000000000000000815260040161078390610fbe565b60405180910390fd5b60016040518060c0016040528060018054905081526020018581526020018481526020018381526020013373ffffffffffffffffffffffffffffffffffffffff1681526020016001151581525090806001815401808255809150506001900390600052602060002090600502016000909190919091506000820151816000015560208201518160010190805190602001906108289291906108f8565b50604082015181600201556060820151816003015560808201518160040160006101000a81548173ffffffffffffffffffffffffffffffffffffffff021916908373ffffffffffffffffffffffffffffffffffffffff16021790555060a08201518160040160146101000a81548160ff02191690831515021790555050507f46c82930170dbdd686240fe845fb3c0d97ff5932608cd5daf74fbf829f3e4add600180805490506108d891906112e3565b8484846040516108eb94939291906110de565b60405180910390a1505050565b828054610904906113a1565b90600052602060002090601f016020900481019282610926576000855561096d565b82601f1061093f57805160ff191683800117855561096d565b8280016001018555821561096d579182015b8281111561096c578251825591602001919060010190610951565b5b50905061097a919061097e565b5090565b5b8082111561099757600081600090555060010161097f565b5090565b60006109ae6109a98461124d565b61121c565b9050828152602081018484840111156109c657600080fd5b6109d184828561135f565b509392505050565b600082601f8301126109ea57600080fd5b81356109fa84826020860161099b565b91505092915050565b600081359050610a1281611471565b92915050565b600080600060608486031215610a2d57600080fd5b600084013567ffffffffffffffff811115610a4757600080fd5b610a53868287016109d9565b9350506020610a6486828701610a03565b9250506040610a7586828701610a03565b9150509250925092565b600060208284031215610a9157600080fd5b6000610a9f84828501610a03565b91505092915050565b600080600060608486031215610abd57600080fd5b6000610acb86828701610a03565b9350506020610adc86828701610a03565b9250506040610aed86828701610a03565b9150509250925092565b6000610b038383610eba565b905092915050565b610b1481611317565b82525050565b610b2381611317565b82525050565b6000610b348261128d565b610b3e81856112b0565b935083602082028501610b508561127d565b8060005b85811015610b8c5784840389528151610b6d8582610af7565b9450610b78836112a3565b925060208a01995050600181019050610b54565b50829750879550505050505092915050565b610ba781611329565b82525050565b610bb681611329565b82525050565b6000610bc782611298565b610bd181856112c1565b9350610be181856020860161136e565b610bea81611460565b840191505092915050565b6000610c0082611298565b610c0a81856112d2565b9350610c1a81856020860161136e565b610c2381611460565b840191505092915050565b6000610c3b6022836112d2565b91507f50726f706f7365642074696d6520657863656564732074656e646572206c696d60008301527f69740000000000000000000000000000000000000000000000000000000000006020830152604082019050919050565b6000610ca1601a836112d2565b91507f54696d652065786365656473206d6178696d756d206c696d69740000000000006000830152602082019050919050565b6000610ce1600f836112d2565b91507f416d6f756e7420746f6f206869676800000000000000000000000000000000006000830152602082019050919050565b6000610d21600d836112d2565b91507f54696d6520746f6f206c6f6e67000000000000000000000000000000000000006000830152602082019050919050565b6000610d61600d836112d2565b91507f54656e64657220636c6f736564000000000000000000000000000000000000006000830152602082019050919050565b6000610da1601c836112d2565b91507f416d6f756e742065786365656473206d6178696d756d206c696d6974000000006000830152602082019050919050565b6000610de16024836112d2565b91507f50726f706f73656420616d6f756e7420657863656564732074656e646572206c60008301527f696d6974000000000000000000000000000000000000000000000000000000006020830152604082019050919050565b6000610e476011836112d2565b91507f496e76616c69642074656e6465722049440000000000000000000000000000006000830152602082019050919050565b6000610e87600e836112d2565b91507f4e6f7420617574686f72697a65640000000000000000000000000000000000006000830152602082019050919050565b600060c083016000830151610ed26000860182610f43565b5060208301518482036020860152610eea8282610bbc565b9150506040830151610eff6040860182610f43565b506060830151610f126060860182610f43565b506080830151610f256080860182610b0b565b5060a0830151610f3860a0860182610b9e565b508091505092915050565b610f4c81611355565b82525050565b610f5b81611355565b82525050565b6000602082019050610f766000830184610b1a565b92915050565b60006020820190508181036000830152610f968184610b29565b905092915050565b60006020820190508181036000830152610fb781610c2e565b9050919050565b60006020820190508181036000830152610fd781610c94565b9050919050565b60006020820190508181036000830152610ff781610d54565b9050919050565b6000602082019050818103600083015261101781610d94565b9050919050565b6000602082019050818103600083015261103781610dd4565b9050919050565b6000602082019050818103600083015261105781610e3a565b9050919050565b6000602082019050818103600083015261107781610e7a565b9050919050565b60006020820190506110936000830184610f52565b92915050565b60006080820190506110ae6000830187610f52565b6110bb6020830186610b1a565b6110c86040830185610f52565b6110d56060830184610f52565b95945050505050565b60006080820190506110f36000830187610f52565b81810360208301526111058186610bf5565b90506111146040830185610f52565b6111216060830184610f52565b95945050505050565b600060c08201905061113f6000830189610f52565b81810360208301526111518188610bf5565b90506111606040830187610f52565b61116d6060830186610f52565b61117a6080830185610b1a565b61118760a0830184610bad565b979650505050505050565b60006040820190506111a76000830184610f52565b81810360208301526111b881610cd4565b905092915050565b60006040820190506111d56000830184610f52565b81810360208301526111e681610d14565b905092915050565b60006040820190506112036000830184610f52565b818103602083015261121481610d54565b905092915050565b6000604051905081810181811067ffffffffffffffff8211171561124357611242611431565b5b8060405250919050565b600067ffffffffffffffff82111561126857611267611431565b5b601f19601f8301169050602081019050919050565b6000819050602082019050919050565b600081519050919050565b600081519050919050565b6000602082019050919050565b600082825260208201905092915050565b600082825260208201905092915050565b600082825260208201905092915050565b60006112ee82611355565b91506112f983611355565b92508282101561130c5761130b6113d3565b5b828203905092915050565b600061132282611335565b9050919050565b60008115159050919050565b600073ffffffffffffffffffffffffffffffffffffffff82169050919050565b6000819050919050565b82818337600083830152505050565b60005b8381101561138c578082015181840152602081019050611371565b8381111561139b576000848401525b50505050565b600060028204905060018216806113b957607f821691505b602082108114156113cd576113cc611402565b5b50919050565b7f4e487b7100000000000000000000000000000000000000000000000000000000600052601160045260246000fd5b7f4e487b7100000000000000000000000000000000000000000000000000000000600052602260045260246000fd5b7f4e487b7100000000000000000000000000000000000000000000000000000000600052604160045260246000fd5b6000601f19601f8301169050919050565b61147a81611355565b811461148557600080fd5b5056fea264697066735822122049c4b6d2380c29b104760a854f04aa7d4d6d77daa416abaaf6efb3bbb31f365e64736f6c63430008000033",
  "linkReferences": {},
  "deployedLinkReferences": {}
}